:020000040800F2
:1000000000500020556A0008C5690008C969000849
:10001000CB690008CD690008CF6900080000000026
:10002000000000000000000000000000D16900088E
:10003000D369000800000000D5690008D7690008EE
:100040009D6A00089D6A00089D6A00089D6A000874
:100050009D6A00089D6A00089D6A00089D6A000864
:100060009D6A00089D6A00089D6A00089D6A000854
:100070009D6A00089D6A00089D6A00089D6A000844
:100080009D6A00089D6A00089D6A00089D6A000834
:100090009D6A00089D6A00089D6A00089D6A000824
:1000A0009D6A0008DD6900089D6A00089D6A0008D5
:1000B000E9690008F56900089D6A00089D6A000862
:1000C0009D6A00089D6A00089D6A00089D6A0008F4
:1000D0009D6A00089D6A00089D6A00089D6A0008E4
:1000E000016A00089D6A00089D6A0008000000007F
:1000F0000000000000000000000000000000000000
:0C01000000000000000000005FF808F1A3
:1001100010B5054C237833B9044B13B10448AFF341
:1001200000800123237010BD780000200000000033
:10013000E07B000808B5034B1BB103490348AFF34C
:10014000008008BD000000007C000020E07B00086B
:1001500081F0004102E000BF83F0004330B54FEA78
:1001600041044FEA430594EA050F08BF90EA020FE5
:100170001FBF54EA000C55EA020C7FEA645C7FEA78
:10018000655C00F0E2804FEA5454D4EB5555B8BF9B
:100190006D420CDD2C4480EA020281EA030382EA0C
:1001A000000083EA010180EA020281EA0303362D9E
:1001B00088BF30BD11F0004F4FEA01314FF4801C71
:1001C0004CEA113102D0404261EB410113F0004F83
:1001D0004FEA03334CEA133302D0524263EB43033A
:1001E00094EA050F00F0A780A4F10104D5F1200ED8
:1001F0000DDB02FA0EFC22FA05F2801841F1000133
:1002000003FA0EF2801843FA05F359410EE0A5F106
:1002100020050EF1200E012A03FA0EFC28BF4CF037
:10022000020C43FA05F3C01851EBE37101F00045ED
:1002300007D54FF0000EDCF1000C7EEB00006EEBFA
:100240000101B1F5801F1BD3B1F5001F0CD3490884
:100250005FEA30004FEA3C0C04F101044FEA4452DB
:1002600012F5800F80F09A80BCF1004F08BF5FEA62
:10027000500C50F1000041EB045141EA050130BD42
:100280005FEA4C0C404141EB010111F4801FA4F1E5
:100290000104E9D191F0000F04BF01460020B1FA3A
:1002A00081F308BF2033A3F10B03B3F120020CDA72
:1002B0000C3208DD02F1140CC2F10C0201FA0CF050
:1002C00021FA02F10CE002F11402D8BFC2F1200CB5
:1002D00001FA02F120FA0CFCDCBF41EA0C0190406B
:1002E000E41AA2BF01EB0451294330BD6FEA0404B4
:1002F0001F3C1CDA0C340EDC04F11404C4F120029F
:1003000020FA04F001FA02F340EA030021FA04F3B0
:1003100045EA030130BDC4F10C04C4F1200220FA07
:1003200002F001FA04F340EA0300294630BD21FA45
:1003300004F0294630BD94F0000F83F4801306BF0B
:1003400081F480110134013D4EE77FEA645C18BFFF
:100350007FEA655C29D094EA050F08BF90EA020F96
:1003600005D054EA000C04BF1946104630BD91EA8E
:10037000030F1EBF0021002030BD5FEA545C05D191
:100380004000494128BF41F0004130BD14F58004D0
:100390003CBF01F5801130BD01F0004545F0FE4144
:1003A00041F470014FF0000030BD7FEA645C1ABF79
:1003B000194610467FEA655C1CBF0B46024650EAB0
:1003C000013406BF52EA033591EA030F41F40021DC
:1003D00030BD00BF90F0000F04BF0021704730B562
:1003E0004FF4806404F132044FF000054FF0000137
:1003F00050E700BF90F0000F04BF0021704730B5F8
:100400004FF4806404F1320410F0004548BF4042CC
:100410004FF000013EE700BF42004FEAE2014FEA21
:1004200031014FEA02701FBF12F07F4393F07F4FFC
:1004300081F06051704792F0000F14BF93F07F4F2E
:10044000704730B54FF4607401F0004521F0004171
:1004500020E700BF50EA010208BF704730B54FF0F7
:1004600000050AE050EA010208BF704730B511F0FC
:10047000004502D5404261EB41014FF4806404F134
:1004800032045FEA915C3FF4DCAE4FF003025FEAB6
:10049000DC0C18BF03325FEADC0C18BF033202EB3E
:1004A000DC02C2F1200300FA03FC20FA02F001FA98
:1004B00003FE40EA0E0021FA02F11444C1E600BF37
:1004C00070B54FF0FF0C4CF4E06C1CEA11541DBFEA
:1004D0001CEA135594EA0C0F95EA0C0F00F0DEF8B5
:1004E0002C4481EA030621EA4C5123EA4C5350EA9A
:1004F000013518BF52EA033541F4801143F48013EB
:1005000038D0A0FB02CE4FF00005E1FB02E506F07B
:100510000042E0FB03E54FF00006E1FB03569CF0D0
:10052000000F18BF4EF0010EA4F1FF04B6F5007FD6
:1005300064F5407404D25FEA4E0E6D4146EB060648
:1005400042EAC62141EA55514FEAC52040EA5E50D1
:100550004FEACE2EB4F1FD0C88BFBCF5E06F1ED87B
:10056000BEF1004F08BF5FEA500E50F1000041EBB2
:10057000045170BD06F0004646EA010140EA02005F
:1005800081EA0301B4EB5C04C2BFD4EB0C0541EA81
:10059000045170BD41F480114FF0000E013C00F396
:1005A000AB8014F1360FDEBF002001F0004170BDBA
:1005B000C4F10004203C35DA0C341BDC04F11404D3
:1005C000C4F1200500FA05F320FA04F001FA05F25F
:1005D00040EA020001F0004221F0004110EBD3702C
:1005E00021FA04F642EB06015EEA430E08BF20EA58
:1005F000D37070BDC4F10C04C4F1200500FA04F3FB
:1006000020FA05F001FA04F240EA020001F000418C
:1006100010EBD37041F100015EEA430E08BF20EAFF
:10062000D37070BDC4F1200500FA05F24EEA020E47
:1006300020FA04F301FA05F243EA020321FA04F076
:1006400001F0004121FA04F220EA020000EBD3702D
:100650005EEA430E08BF20EAD37070BD94F0000F2D
:100660000FD101F00046400041EB010111F4801F61
:1006700008BF013CF7D041EA060195F0000F18BF12
:10068000704703F00046520043EB030313F4801F4E
:1006900008BF013DF7D043EA0603704794EA0C0F08
:1006A0000CEA135518BF95EA0C0F0CD050EA41061E
:1006B00018BF52EA4306D1D181EA030101F000419B
:1006C0004FF0000070BD50EA410606BF10461946C3
:1006D00052EA430619D094EA0C0F02D150EA0136CF
:1006E00013D195EA0C0F05D152EA03361CBF104610
:1006F00019460AD181EA030101F0004141F0FE41AF
:1007000041F470014FF0000070BD41F0FE4141F432
:10071000780170BD70B54FF0FF0C4CF4E06C1CEA32
:1007200011541DBF1CEA135594EA0C0F95EA0C0FE7
:1007300000F0A7F8A4EB050481EA030E52EA0335A2
:100740004FEA013100F088804FEA03334FF08055C3
:1007500045EA131343EA12634FEA022245EA1115F0
:1007600045EA10654FEA00260EF000419D4208BFA1
:10077000964244F1FD0404F5407402D25B084FEA4E
:100780003202B61A65EB03055B084FEA32024FF4FA
:1007900080104FF4002CB6EB020E75EB030E22BF57
:1007A000B61A754640EA0C005B084FEA3202B6EB17
:1007B000020E75EB030E22BFB61A754640EA5C00C6
:1007C0005B084FEA3202B6EB020E75EB030E22BF56
:1007D000B61A754640EA9C005B084FEA3202B6EB57
:1007E000020E75EB030E22BFB61A754640EADC0016
:1007F00055EA060E18D04FEA051545EA16754FEA78
:1008000006164FEAC30343EA52734FEAC2025FEA95
:100810001C1CC0D111F4801F0BD141EA00014FF024
:1008200000004FF0004CB6E711F4801F04BF0143F5
:100830000020B4F1FD0C88BFBCF5E06F3FF6AFAE11
:10084000B5EB030C04BFB6EB020C5FEA500C50F1A1
:10085000000041EB045170BD0EF0004E4EEA113124
:1008600014EB5C04C2BFD4EB0C0541EA045170BD2B
:1008700041F480114FF0000E013C90E645EA060E6F
:100880008DE60CEA135594EA0C0F08BF95EA0C0F9D
:100890003FF43BAF94EA0C0F0AD150EA01347FF4E5
:1008A00034AF95EA0C0F7FF425AF104619462CE7BC
:1008B00095EA0C0F06D152EA03353FF4FDAE10461F
:1008C000194622E750EA410618BF52EA43067FF470
:1008D000C5AE50EA41047FF40DAF52EA43057FF400
:1008E000EBAE12E74FF0FF3C06E000BF4FF0010C0B
:1008F00002E000BF4FF0010C4DF804CD4FEA410C6F
:100900007FEA6C5C4FEA430C18BF7FEA6C5C1BD03B
:1009100001B050EA410C0CBF52EA430C91EA030FBC
:1009200002BF90EA020F0020704710F1000F91EA19
:10093000030F58BF994208BF90422CBFD8176FEAE7
:10094000E37040F0010070474FEA410C7FEA6C5CB5
:1009500002D150EA013C07D14FEA430C7FEA6C5CBC
:10096000D6D152EA033CD3D05DF8040B704700BFE8
:100970008446104662468C461946634600E000BF36
:1009800001B5FFF7B7FF002848BF10F1000F01BD08
:100990004DF808EDFFF7F4FF0CBF012000205DF8D3
:1009A00008FB00BF4DF808EDFFF7EAFF34BF012058
:1009B00000205DF808FB00BF4DF808EDFFF7E0FFF1
:1009C00094BF012000205DF808FB00BF4DF808ED42
:1009D000FFF7CEFF94BF012000205DF808FB00BFA9
:1009E0004DF808EDFFF7C4FF34BF012000205DF88B
:1009F00008FB00BF4FEA410C7FEA6C5C02D150EA71
:100A0000013C0AD14FEA430C7FEA6C5C02D152EA06
:100A1000033C02D14FF0000070474FF001007047D7
:100A20004FEA410212F5001215D211D56FF4787316
:100A3000B3EB625212D94FEAC12343F0004343EAB9
:100A4000505311F0004F23FA02F018BF4042704794
:100A50004FF00000704750EA013005D111F000401E
:100A600008BF6FF0004070474FF00000704700BFB4
:100A70004FEA4102B2F1E04324BFB3F5001CDCF1C0
:100A8000FE5C0DD901F0004C4FEAC0024CEA5070F8
:100A9000B2F1004F40EB830008BF20F00100704727
:100AA00011F0804F21D113F13872BCBF01F000402A
:100AB000704741F480114FEA5252C2F11802C2F15C
:100AC000200C10FA0CF320FA02F018BF40F00100DD
:100AD0004FEAC1234FEAD32303FA0CFC40EA0C008F
:100AE00023FA02F34FEA4303CCE77FEA625307D1CC
:100AF00050EA01331EBF4FF0FE4040F44000704703
:100B000001F0004040F0FE4040F40000704700BF9C
:100B100080F0004002E000BF81F0004142001FBFB2
:100B20005FEA410392EA030F7FEA226C7FEA236CBB
:100B30006AD04FEA1262D2EB1363C1BFD2184140B0
:100B400048404140B8BF5B42192B88BF704710F046
:100B5000004F40F4000020F07F4018BF404211F0E9
:100B6000004F41F4000121F07F4118BF494292EA51
:100B7000030F3FD0A2F1010241FA03FC10EB0C007D
:100B8000C3F1200301FA03F100F0004302D549420A
:100B900060EB4000B0F5000F13D3B0F1807F06D3B7
:100BA00040084FEA310102F10102FE2A51D2B1F1AF
:100BB000004F40EBC25008BF20F0010040EA0300A4
:100BC0007047490040EB000010F4000FA2F1010251
:100BD000EDD1B0FA80FCACF1080CB2EB0C0200FADB
:100BE0000CF0AABF00EBC25052421843BCBFD04029
:100BF0001843704792F0000F81F4000106BF80F4A3
:100C000000000132013BB5E74FEA41037FEA226C65
:100C100018BF7FEA236C21D092EA030F04D092F030
:100C2000000F08BF0846704790EA010F1CBF002064
:100C3000704712F07F4F04D1400028BF40F00040C1
:100C4000704712F100723CBF00F50000704700F0E1
:100C5000004343F0FE4040F4000070477FEA226208
:100C600016BF08467FEA23630146420206BF5FEAD9
:100C7000412390EA010F40F4800070474FF00003D9
:100C800004E000BF10F0004348BF40425FEA000CA0
:100C900008BF704743F0964301464FF000001CE048
:100CA00050EA010208BF70474FF000030AE000BF9E
:100CB00050EA010208BF704711F0004302D54042DC
:100CC00061EB41015FEA010C02BF8446014600204E
:100CD00043F0B64308BFA3F18053A3F50003BCFA69
:100CE0008CF2083AA3EBC25310DB01FA02FC634416
:100CF00000FA02FCC2F12002BCF1004F20FA02F21D
:100D000043EB020008BF20F00100704702F120020F
:100D100001FA02FCC2F1200250EA4C0021FA02F270
:100D200043EB020008BF20EADC7070474FF0FF0C75
:100D30001CEAD0521EBF1CEAD15392EA0C0F93EA70
:100D40000C0F6FD01A4480EA010C400218BF5FEA12
:100D500041211ED04FF0006343EA501043EA511185
:100D6000A0FB01310CF00040B1F5000F3EBF49007F
:100D700041EAD3715B0040EA010062F17F02FD2A83
:100D80001DD8B3F1004F40EBC25008BF20F0010066
:100D9000704790F0000F0CF0004C08BF49024CEA7D
:100DA000502040EA51207F3AC2BFD2F1FF0340EA0F
:100DB000C250704740F400004FF00003013A5DDC80
:100DC00012F1190FDCBF00F000407047C2F10002C1
:100DD000410021FA02F1C2F1200200FA02FC5FEAAE
:100DE000310040F1000053EA4C0308BF20EADC70F8
:100DF000704792F0000F00F0004C02BF400010F46A
:100E0000000F013AF9D040EA0C0093F0000F01F016
:100E1000004C02BF490011F4000F013BF9D041EA38
:100E20000C018FE70CEAD15392EA0C0F18BF93EA3A
:100E30000C0F0AD030F0004C18BF31F0004CD8D164
:100E400080EA010000F00040704790F0000F17BFEB
:100E500090F0004F084691F0000F91F0004F14D031
:100E600092EA0C0F01D142020FD193EA0C0F03D189
:100E70004B0218BF084608D180EA010000F000408C
:100E800040F0FE4040F40000704740F0FE4040F467
:100E9000400070474FF0FF0C1CEAD0521EBF1CEA06
:100EA000D15392EA0C0F93EA0C0F69D0A2EB030224
:100EB00080EA010C49024FEA402037D04FF08053BE
:100EC00043EA111143EA10130CF000408B4238BF83
:100ED0005B0042F17D024FF4000C8B4224BF5B1A91
:100EE00040EA0C00B3EB510F24BFA3EB510340EADF
:100EF0005C00B3EB910F24BFA3EB910340EA9C008D
:100F0000B3EBD10F24BFA3EBD10340EADC001B01FC
:100F100018BF5FEA1C1CE0D1FD2A3FF650AF8B42A0
:100F200040EBC25008BF20F0010070470CF0004CAD
:100F30004CEA50207F32C2BFD2F1FF0340EAC250D8
:100F4000704740F400004FF00003013A37E792F099
:100F5000000F00F0004C02BF400010F4000F013AF7
:100F6000F9D040EA0C0093F0000F01F0004C02BFF2
:100F7000490011F4000F013BF9D041EA0C0195E75B
:100F80000CEAD15392EA0C0F08D142027FF47DAFF4
:100F900093EA0C0F7FF470AF084676E793EA0C0FE4
:100FA00004D14B023FF44CAF08466EE730F0004CE2
:100FB00018BF31F0004CCAD130F000427FF45CAF72
:100FC00031F000437FF43CAF5FE700BF4FF0FF3CE0
:100FD00006E000BF4FF0010C02E000BF4FF0010C33
:100FE0004DF804CD4FEA40024FEA41037FEA226CFC
:100FF00018BF7FEA236C11D001B052EA530C18BF1E
:1010000090EA010F58BFB2EB030088BFC81738BF82
:101010006FEAE17018BF40F0010070477FEA226C70
:1010200002D15FEA402C05D17FEA236CE4D15FEA6C
:10103000412CE1D05DF8040B704700BF84460846A0
:101040006146FFE70FB5FFF7C9FF002848BF10F161
:10105000000F0FBD4DF808EDFFF7F4FF0CBF0120A6
:1010600000205DF808FB00BF4DF808EDFFF7EAFF30
:1010700034BF012000205DF808FB00BF4DF808EDEB
:10108000FFF7E0FF94BF012000205DF808FB00BFE0
:101090004DF808EDFFF7D2FF94BF012000205DF866
:1010A00008FB00BF4DF808EDFFF7C8FF34BF012073
:1010B00000205DF808FB00BF4FEA4002B2F1FE4F8E
:1010C0000FD34FF09E03B3EB12620DD94FEA00230A
:1010D00043F0004310F0004F23FA02F018BF4042E3
:1010E00070474FF00000704712F1610F01D14202CA
:1010F00005D110F0004008BF6FF0004070474FF07E
:1011000000007047F8B58669056A04460F46C16954
:101110003046FFF703FD2946FFF700FD2946206012
:101120002846FFF7FBFC06F1004601463046FFF774
:10113000F3FCA56060601FB10023E360236163617D
:10114000F8BD0023C36003614361704738B50E4B9F
:10115000054618784FF47A73B3FBF0F30B4A106826
:10116000B0FBF3F000F0A4FC044658B90F2D09D8E9
:10117000024629464FF0FF3000F042FC044B204667
:101180001D6038BD012038BD000000200C0000208B
:1011900004000020074A08B51368032043F0100339
:1011A000136000F00FFC0020FFF7D0FF05F0AAFA53
:1011B000002008BD00200240034A044B11681B7840
:1011C0000B441360704700BFD001002000000020D6
:1011D000014B1868704700BFD00100200023F7B50D
:1011E0004E4A01930368044693420D4608D002F527
:1011F0008062934204D040F2A531494805F080FA5C
:10120000FFF7E6FF236807469A68D20509D5A36A67
:10121000012043F02003A362002384F8243003B0AC
:10122000F0BD5A68D60503D4DB6A13F4700F3BD0C7
:101230003C4B02201E6801F09FFF23683A4A19695F
:10124000B6FBF0F01142394A4FD1DE6838490E4200
:101250004BD11969114259D1DA68364B1A4214BF81
:101260002923142300FB03F6019B9E4220D96B1C0B
:1012700005D05DB1FFF7ACFFC01B854206D3019BD3
:1012800001330193F0E7681C0FD045B9A36A03202E
:1012900043F00403A362002384F82430BFE7FFF780
:1012A00097FFC01B8542F1D3226813689907EAD5DE
:1012B0006FF0120322681360A36A43F40073A36201
:1012C000936803F46023B3F5602F25D1E3681BBB5B
:1012D000A36A23F48073A362A06A10F480501BD128
:1012E000A36A43F00103A36299E71969114203D18C
:1012F000D968104A11420BD019690F4A114209D11D
:10130000DB68134214BFFC235423ABE72923A9E76E
:101310005423A7E7FC23A5E7002080E70024014031
:10132000187C00080C0000202449922492244912C1
:10133000244992009224490049922400002373B565
:101340000193036804469A68D20702D5002002B0D0
:1013500070BD9A6842F001029A60124B124A1B68F3
:10136000B3FBF2F30193019BC3B9FFF731FF0646CC
:1013700023689D6815F00105E8D1FFF729FF801B60
:101380000228F5D9A36A84F8245043F01003A3621D
:10139000E36A012043F00103E362D8E7019B013BCC
:1013A000E0E700BF0C00002040420F0038B50368A2
:1013B00004469A68D20701D4002038BD9A6822F00A
:1013C00001029A60FFF704FF054623689B68DB076C
:1013D000F2D5FFF7FDFE401B0228F6D9A36A0120D3
:1013E00043F01003A362E36A43F00103E36238BDF4
:1013F00070B50446002800F0C9800368664A93422D
:1014000008D002F58062934204D04FF4C171634862
:1014100005F076F9636833F4006304D040F2831179
:101420005E4805F06DF9A36833F4807304D04FF47F
:10143000C2715A4805F064F9E368012B04D940F2FF
:101440008511564805F05CF9E36933F420220CD08D
:1014500023F40022B2F5C02F07D0B3F5402F04D0FB
:101460004FF4C3714D4805F04BF9A368DBB1236914
:10147000013B0F2B04D94FF4C571484805F040F9E2
:101480006369012B04D940F28B11444805F038F907
:10149000636943B1A369013B072B04D94FF4C771BA
:1014A0003E4805F02DF9A36A2BB9E36284F8243095
:1014B000204605F049F92046FFF778FFA36A13F0AC
:1014C000100FA36A64D1002862D1E16923F4885324
:1014D000626823F0020343F002030A43A168A36297
:1014E000E368B1F5807F42EA430238D0012914BF96
:1014F00006464FF480766569012D07D1002B30D167
:10150000A369013B46EA433545F400662368B1F51B
:10151000807F5D6825F4694545EA06055D609E6843
:101520001F4D05EA060545EA02059D6001D0012927
:1015300020D1216901390905DD6A25F470052943A7
:10154000D9629968174B0B409A4215D10023E36288
:10155000A36A23F0030343F00103A36270BD0E46A8
:10156000C9E7A36A43F02003A362E36A43F00103DF
:10157000E362CBE70021DFE7A36A23F0120343F025
:101580001003A362E36A43F00103E362012070BD2C
:1015900043F01003A362F9E700240140187C00081F
:1015A000FDF7E1FFFE0E1FFF03682F4A10B59342BF
:1015B000044607D002F58062934203D0FD212B48F8
:1015C00005F09EF894F82430012B4BD001232046DF
:1015D00084F82430FFF7B2FE00283FD1A36A244AE2
:1015E00023F4405323F0010343F48053A3622368A0
:1015F000934205D1A2F58062526812F4702F25D172
:10160000A26A22F48012A262A26A12F4807208BF57
:10161000E262002284F824206FF004021A605A6803
:10162000520520D49A6802F4E042B2F5E04F11D19D
:101630000F4A934205D1A2F58062526812F4702FCE
:1016400008D19A6842F402129A6010BDA26A42F46C
:101650008012D8E79A6842F40042F5E7002384F844
:10166000243010BD022010BD00240140507C000831
:101670000028014003681A4A10B59342044608D076
:1016800002F58062934204D04FF4B071154805F022
:1016900037F894F82430012B1FD0012384F824302C
:1016A000A36ADA0513D423685B685B050FD4204670
:1016B000FFF77CFE38B9A36A23F4885323F00103B3
:1016C00043F00103A362002384F8243010BDA36A11
:1016D000012043F02003A362F5E7022010BD00BF04
:1016E00000240140507C000838B5134A03680546C1
:1016F00093420C4608D002F58062934204D040F237
:101700008A310E4804F0FCFF631E032B04D940F21B
:101710008B310A4804F0F4FF032C2B6807D0042C0B
:1017200003D0022C05D1186C38BD986C38BD586CAC
:1017300038BDD86B38BD00BF00240140507C000884
:101740000023F7B59A4A01930368054693420C4675
:1017500008D002F58062934204D040F2FA319548F5
:1017600004F0CEFF2368112B04D940F2FB319148DD
:1017700004F0C6FFA368072B04D94FF47F718D488E
:1017800004F0BEFFA369012B04D940F2FD31894862
:1017900004F0B6FFE36923F44053B3F5804F05D05E
:1017A00023B140F2FE31834804F0AAFFE368B3F5A9
:1017B000805F04D340F2FF317E4804F0A1FFAB68A4
:1017C000CBB16368013B032B04D940F20341794854
:1017D00004F096FF2369013B032B04D940F2044136
:1017E000744804F08DFF6369012B04D940F2054170
:1017F000704804F085FF95F82430012B00F0D68066
:1018000094E842000120AF6885F824002B68002F7F
:101810007AD1864207D19A6B920D920542EAC13283
:101820009A63002003E0AA6A42F02002AA629A6842
:10183000D70707D49A68E76922F4E04222F0010250
:101840003A439A60A269012A0DD1E769B7F5E04FE2
:1018500017BFA86A5F6840F02000A86212BF104658
:1018600047F480675F606769012F05D1002A6FD157
:101870005A6842F480525A600929D4F808E04FEAC5
:1018800041026BD94FF0070C0A44DF681E3A0CFA8C
:1018900002FC27EA0C070EFA02F23A43DA60A1F1E1
:1018A0001007012F98BF9A68E4689CBF42F40002B9
:1018B0009A60022EDFF808E15DD0032E61D0012E80
:1018C00065D15A6902EA0E0222435A61012F16D8E5
:1018D000374A934264D19A68120210D49A68102948
:1018E00042F400029A600AD1334B344A1B68B3FBBE
:1018F000F2F20A2353430193019B002B4DD10023A5
:1019000085F8243003B0F0BD2769BE42A6EB07027C
:1019100012D802EB82020F32013F01FA02F040EAD4
:1019200007501F27D3F838E007FA02F242F44012BA
:101930002EEA0202024373E71F2002EB82020F32FB
:101940009F6B00FA02F242F4401227EA020267E7B4
:10195000AA6A384642F02002AA628DE74FF0070CCF
:101960001F690A440CFA02FC27EA0C070EFA02F27D
:101970003A431A6193E79A6902EA0E0222439A6196
:10198000A4E7DA6902EA0E022243DA619EE71A6AE4
:1019900002EA0E0222431A6298E7019B013BAAE782
:1019A000AB6A012043F02003AB62A8E70220A9E75D
:1019B00000240140507C00080C00002040420F0031
:1019C00000F0FFFFC31E042B10B5044603D9A2216B
:1019D000094804F095FE094A2402D36804F4E0643F
:1019E00023F4E0631B041B0C43F0BF6343F4003398
:1019F0001C43D46010BD00BF8B7C000800ED00E0EC
:101A00000F2A70B504460E46154603D9BA211A4866
:101A100004F076FE0F2E03D9BB21174804F070FEA8
:101A2000164B0120D968C1F30221C1F107030A1D39
:101A3000042B28BF0423062A94BF0021033900FA8F
:101A400003F2013A8840324001388A400540002CB8
:101A500042EA05024FEA0212AFBF04F16044084BAC
:101A600004F00F04D2B2A5BFD2B204F561441A55F6
:101A700084F8002370BD00BF8B7C000800ED00E0FF
:101A800014ED00E010B5041E03DACE21064804F080
:101A900037FE0123620904F01F0403FA04F4034B28
:101AA00043F8224010BD00BF8B7C000800E100E03D
:101AB0000138B0F1807F0AD2F021064B064A586007
:101AC00082F823100020072298601A6070470120D6
:101AD000704700BF10E000E000ED00E010B50446E4
:101AE00098B102680A4B9A4203D07721094804F062
:101AF00007FE637903F0FF021BB92271204604F050
:101B000063FE01230020637110BD012010BD00BFE2
:101B100000300240C67C00082DE9F04FAA4A85B08B
:101B2000904204468B46019213D002F580629042A7
:101B30000FD002F5806290420BD002F58062904295
:101B400007D002F58062904203D0CD219F4804F077
:101B5000D7FDDBF8002091B211B1120C12041AB1BA
:101B6000CE219A4804F0CCFDDBF80420032A17D9D3
:101B7000A2F11101012913D9954822F400118142E3
:101B80000ED000F5801082420AD0A0F5702081426C
:101B900006D090498A4203D0CF218C4804F0B0FD92
:101BA0000025A846DFF844A28B4E0122DBF8007026
:101BB00002FA08F909EA0707B94540F08F80019B4E
:101BC0009C4211D085498C420ED0854B9C420BD053
:101BD00001F500618C4207D001F580618C4203D091
:101BE000DD217A4804F08CFDDBF80410122900F0A6
:101BF000D38000F28D80022900F0C18077D80029BF
:101C000000F09380012900F0AE80FF2F82BF08F121
:101C1000804EAEF1080E4FEA8E014FF00F0E9DBFC1
:101C2000204622684FEA880162680EFA01FC22EA27
:101C30000C0205FA01F188BF201D11430160DBF899
:101C40000400C3004AD5DAF8182028F0030142F056
:101C50000102CAF81820DAF8182001F1804102F0D8
:101C60000102039201F5803108F0030C019B039AF5
:101C70004FEA8C0C8A680EFA0CFE9C4222EA0E0E89
:101C800000F09B80554A944200F09980544B9C424E
:101C900000F0978002F50062944214BF04220322F0
:101CA00002FA0CF242EA0E028A603268C1034CBFAB
:101CB0003A43BA433260726883034CBF3A43BA4333
:101CC0007260B268C1024CBF3A43BA43B260F26874
:101CD00083024CBF174322EA0707F76008F10108A7
:101CE000B8F1100F7FF461AF05B0BDE8F08F0329A4
:101CF0005FD0112989D1DBF80C20013A022A03D9DF
:101D0000EC21324804F0FCFCDBF80C5004357CE795
:101D10003448814209D01CD8A0F58010814204D0FB
:101D200000F5803081427FF470AFDBF808100229A3
:101D300004D940F20711254804F0E2FCDBF8081052
:101D4000C9B301290CBFC4F81090C4F81490082539
:101D50005BE725488142E8D000F580308142E4D03D
:101D6000A0F58010DEE7DBF80C20013A022A03D947
:101D7000E521164804F0C4FCDBF80C5045E7DBF81D
:101D80000C20013A022A03D9F321104804F0B8FCD0
:101D9000DBF80C50083538E7DBF80C20013A022A52
:101DA00003D9FA21094804F0ABFCDBF80C500C35E0
:101DB0002BE7002529E7042527E7002270E7012209
:101DC0006EE702226CE700BF00080140FE7C0008BD
:101DD000000011100000221000040140000C01401E
:101DE00000100140000021100000311000100240DE
:101DF00038B505460C4621B940F2C311044804F039
:101E00007FFCAB681C4214BF0120002038BD00BF1E
:101E1000FE7C000870B5054616460C4621B940F216
:101E2000E311084804F06CFC012E06D94FF4F2715E
:101E3000044804F065FC2C6170BD002EFBD1240425
:101E4000F9E700BFFE7C000838B505460C4621B90D
:101E500040F2F911034804F053FCEB685C40EC607D
:101E600038BD00BFFE7C000808B5044B596901422B
:101E700002D0586103F030FF08BD00BF00040140EC
:101E80000268536913F480630DD06FF4806353616B
:101E90000423202203640023036380F83C3080F88D
:101EA0003D2001207047184670472DE9F84304464D
:101EB00017469946C1F307488EB22568B8F1010F5D
:101EC0000CBF6B69AB6936EA030314BF0120002025
:101ED00008B9BDE8F8836B695A0512D52B68202232
:101EE00043F400732B606FF480636B6104232364FD
:101EF00000230120236384F83C3084F83D20BDE8B2
:101F0000F8837B1CD9D04FB900232022236384F8A7
:101F10003C3084F83D200320BDE8F883FFF758F9F2
:101F2000A0EB09008742C8D2EEE72DE9F84304464A
:101F300090461F46089EC1F307498DB22368B9F148
:101F4000010F0CBF5B699B6935EA03030CBF0123DA
:101F50000023434502D00020BDE8F8837B1CEDD070
:101F60005FB900232022236384F83C3084F83D20AD
:101F7000032084F83E30BDE8F883FFF729F9801B81
:101F80008742DBD2EDE770B504460D46164623685E
:101F90005B691B0601D5002070BD2046FFF770FF6E
:101FA000A8B96A1CF3D065B9236C202243F0200342
:101FB000236400230320236384F83C3084F83D200D
:101FC00070BDFFF705F9801B8542E0D2ECE70120E8
:101FD00070BD00002DE9FF41154602689846136860
:101FE0000B9E43F4807313600F4600960A9B0022F9
:101FF0004FF001110446FFF798FF68B9236807F016
:10200000FE071F610A9A33461A492046FFF74DFF23
:1020100030B1236C042B18D0032004B0BDE8F0814C
:10202000236803905A690A9903929B693246039385
:102030002046039BFFF7A7FF48B1236C042BEBD18D
:102040002268136843F4007313600120E5E7B8F1D8
:10205000010F236802D1EDB21D61DEE72A0A1A6181
:102060000A9932462046FFF78EFF0028E5D1236803
:10207000F1E700BF020001002DE9FF419846036827
:1020800016461A680B9D42F480621A601A680F4661
:1020900042F480721A604FF0011100950A9B0022F1
:1020A0000446FFF742FF80B92368FFB207F0FE0243
:1020B0001A612D492B460A9A2046FFF7F6FE40B1D9
:1020C000236C042B01D1012000E0032004B0BDE803
:1020D000F081236803905A690A9903929B692A4602
:1020E00003932046039BFFF74EFF40B1236C042B64
:1020F000EBD12268136843F400731360E3E7B8F18F
:10210000010F236824D1F6B21E612A460A9920469F
:10211000FFF739FF02460028E8D1216820460B6806
:1021200043F480730B6000950A9B4FF00111FFF799
:10213000FCFE0028C9D1236847F001071F610A9AF5
:102140002B4609492046FFF7B0FE0028B8D1BDE76D
:10215000320A1A610A992A462046FFF714FF00281E
:10216000C4D12368CFE700BF0200010070B5044668
:102170000D4616462068436913F0400301D0002045
:1021800070BD4269D2060BD56FF010024261202269
:10219000236484F83C302363012084F83D2070BD23
:1021A0005DB9236C032043F020032364202384F8CB
:1021B0003D30002384F83C3070BDFFF709F8801BE8
:1021C0008542D7D2EDE770B504460D461646236822
:1021D0005B695B0701D5002070BD2046FFF750FE0C
:1021E000A8B96A1CF3D065B9236C202243F0200300
:1021F000236400230320236384F83C3084F83D20CB
:1022000070BDFEF7E5FF801B8542E0D2ECE70120C0
:1022100070BD000038B5044608B9012038BD036818
:10222000654A934208D002F58062934204D040F29E
:102230007D11624804F064FA6368614A013B93428D
:1022400004D94FF4BF715D4804F05AFAA36833F41F
:10225000804304D040F27F11584804F051FAE368FB
:1022600023F47F7323F0030323B14FF4C071534869
:1022700004F046FA236923F40043B3F5804F04D0F9
:1022800040F281114D4804F03BFA6369012B04D9F7
:102290004FF4C171494804F033FAA36933F0FE03E7
:1022A00004D040F28311454804F02AFAE36933F080
:1022B000400304D04FF4C271404804F021FA236A6D
:1022C00033F0800304D040F285113C4804F018FA42
:1022D00094F83D3003F0FF0223B984F83C202046F7
:1022E00004F086FA2423226884F83D30136823F032
:1022F0000103136000F072FE6368324A934230D8E3
:10230000314A904289D9314A2168B0FBF2F24A60E1
:1023100001320A622B4A0138934233D85B00B0FB8A
:10232000F3F0431CC3F30B03042B38BF0423CB612E
:10233000226AE369002013430B60E26823691343B8
:102340008B60A26963691343CB600B6843F00103A0
:102350000B602023206484F83D30206384F83E0025
:1023600038BD1B4A90427FF658AF184D4FF4967215
:10237000B0FBF5F521686A434D604FF47A75B2FB06
:10238000F5F2C5E7A26852B903EB4303B0FBF3F0E3
:10239000431CC3F30B036BB143F40043C7E719229B
:1023A0005343B0FBF3F0431CC3F30B0313B143F4EB
:1023B0004043BCE70123BAE700540040377D0008E2
:1023C0007F1A0600A08601007F841E0040420F0095
:1023D000FF083D002DE9FF4104461F460D4690468B
:1023E000FEF7F6FE94F83D300646202B04D0022579
:1023F000284604B0BDE8F0810090192301225D4910
:102400002046FFF792FD0028F1D194F83C30012BD3
:10241000EDD0012384F83C3023681A68D2075EBFF0
:102420001A6842F001021A601A6822F400621A6007
:10243000212284F83D20102284F83E2000222264CC
:10244000A2F580326785E262628DC4F8248022851D
:10245000E26A042A04D0012A02D012F5803F04D196
:102460001A6842F480721A6002E0226B122AF7D0D6
:1024700000960A9B00224FF001112046FFF755FD00
:1024800028BB23692268B3F5804F12D105F0FE0501
:10249000156133460A9A38492046FFF706FD05467E
:1024A000A0B9236803905A6903929B690393039B25
:1024B00050E0EB1103F0060343F0F00313612F49E2
:1024C00033460A9A2046FFF7F0FC48B1236C236C90
:1024D000042B4FF0000307D184F83C30012587E737
:1024E0002368EDB21D61D4E784F83C3003257FE713
:1024F00032460A992046FFF746FD40B1236C042B73
:10250000F4D12268136843F400731360E6E7616A4C
:1025100020684B1C63620B78228D0361638D013B45
:102520009BB263854769531E9BB27F0723850AD5FB
:102530004BB18B1C63624B78023A0361638D228539
:10254000013B9BB2638532460A992046FFF73BFE6A
:102550000028D3D1238D002BCAD121680A6842F408
:1025600000720A60202284F83C3084F83D2084F810
:102570003E303DE7020010000200010008000100AB
:102580002DE9F34798460446894692460C9EFEF78D
:102590001FFEB8F1010F054607D0B8F1100F04D0A7
:1025A00040F69511454804F0ABF894F83D30202BE7
:1025B00003D0022002B0BDE8F08700951923012264
:1025C0003F492046FFF7B1FC0028F2D194F83C3097
:1025D000012BEED0012384F83C30236800271A68D1
:1025E0004946D20758BF1A6820465CBF42F0010234
:1025F0001A601A6822F400621A60212384F83D30C0
:10260000402384F83E300A9B27646362BDF82C3077
:10261000019563852B4B0096E362638D52462385BB
:102620004346FFF7D7FC00282AD0236C84F83C707F
:10263000042B07D10120BDE7FFF7A5FC20B1236CD7
:10264000042B34D00320B5E7616A27684B1C636212
:102650000B78228D3B61638D501E013B9BB26385DD
:102660007B6980B25B0720850AD548B18B1C636209
:102670004B78023A3B61638D2285013B9BB26385B7
:10268000238D2A4631462046002BD5D1FFF79BFDEE
:102690000028D4D12268136843F400731360202308
:1026A00084F83C0084F83D3084F83E0082E72268DC
:1026B000136843F400731360BCE700BF377D000864
:1026C000020010000000FFFF2DE9F0471D4686B014
:1026D000044689469246109FFEF77AFD012D064674
:1026E00006D0102D04D040F61B21894804F008F8CC
:1026F00094F83D30202B04D00225284606B0BDE8D2
:10270000F08700961923012282492046FFF70DFC2D
:102710000028F1D194F83C30012BEDD0012384F84E
:102720003C3023684FF000081A684946D20758BF6A
:102730001A6820465CBF42F001021A601A6822F44F
:1027400000621A60222384F83D30402384F83E3032
:102750000E9BC4F840806362BDF83C3001966385EF
:102760006D4B0097E362638D524623852B46FFF73E
:1027700083FC054630B1236C84F83C80042B3DD1AA
:102780000125BAE7228D236892B902905A69029214
:102790009A690292029A1A6842F400721A6020231F
:1027A00084F83D30002384F83E3084F83C30A4E7C0
:1027B000012A25D11A6822F480621A6072B6236851
:1027C00003905A6903929A690392039A1A6842F431
:1027D00000721A6062B6DFF84481238D002BDED0D0
:1027E000032B77D8012B27D1324639462046FFF7F5
:1027F000BDFC00283FD0236C202BC1D103257CE7F2
:10280000022A1A680ED142F400621A6072B6236876
:1028100004905A6904929A690492049A1A6822F4FC
:102820008062D6E742F480621A6005905A69059288
:102830009B690593059BCEE7022B00963B464FF024
:1028400000024146204624D1FFF76FFB0028D5D176
:1028500072B623681A6842F400721A60626A1B69D1
:10286000511C61621370238D013B2385638D013BF5
:102870009BB2638562B6636A5A1C626222681269FF
:102880001A70238D013B2385638D013B9BB26385C9
:10289000A3E7FFF74AFB02460028AFD121680B6887
:1028A00023F480630B6072B6636A2046591C616230
:1028B000216809691970238D0096013B2385638D7A
:1028C0004146013B9BB263853B46FFF72EFB002848
:1028D000BFD093E7324639462046FFF747FC002831
:1028E00089D1636A5A1C6262226812691A70238D48
:1028F0002268013B2385638D013B9BB2638553694D
:102900005B077FF56AAF636A591C6162B7E700BF76
:10291000377D0008020010000000FFFF04000100E6
:1029200090F83D00704700000122014B1A6070478B
:1029300020000E422DE9F341044620B94FF4B8714E
:10294000A54803F0DDFE236833B11A0704D140F235
:102950007111A14803F0D4FE2368DB0718D4236863
:102960009F0772D42368190700F1B98023685A07BA
:1029700000F1EB80E369022B04D940F2B9219648BB
:1029800003F0BEFEE269002A40F05E81002020E0F4
:10299000636833F4803207D0B3F5A02F04D040F23F
:1029A00077118D4803F0ACFE8C4D6B6803F00C037F
:1029B000042B07D06B6803F00C03082B0CD16B6859
:1029C000DE0309D52B689D03C9D56368002BC6D1EA
:1029D000012002B0BDE8F0816368B3F5803F10D1FB
:1029E0002B6843F480332B60FEF7F2FB06462B681E
:1029F0009803B4D4FEF7ECFB801B6428F7D90320BE
:102A0000E7E79BB92B6823F480332B602B6823F412
:102A100080232B60FEF7DCFB06462B6899039ED5CE
:102A2000FEF7D6FB801B6428F7D9E8E7B3F5A02FA3
:102A30002B6803D143F480232B60D1E723F4803348
:102A40002B602B6823F48023CDE72369012B04D965
:102A500040F2AB11604803F053FE63691F2B04D9A9
:102A60004FF4D6715C4803F04BFE5C4D6B6813F07D
:102A70000C0F07D06B6803F00C03082B10D16B68A8
:102A8000DA030DD42B689B0702D52369012B9FD154
:102A90002B68626923F0F80343EAC2032B6061E705
:102AA00022694F4B6AB101221A60FEF791FB06467C
:102AB0002B689F07ECD4FEF78BFB801B0228F7D90D
:102AC0009DE71A60FEF784FB06462B6898077FF5A2
:102AD00049AFFEF77DFB801B0228F6D98FE7A3697B
:102AE000012B04D94FF4F6713B4803F009FEA269AB
:102AF0003A4D3C4BDAB101221A60FEF769FB0646FB
:102B00006B6A9B070DD54FF4FA52374B1B68B3FB2A
:102B1000F2F3019300BF019B5A1E0192002BF9D1E1
:102B200024E7FEF755FB801B0228E9D967E71A6006
:102B3000FEF74EFB06466B6A9F077FF517AFFEF761
:102B400047FB801B0228F6D959E7E368012B06D919
:102B5000052B04D040F21B211F4803F0D1FD1F4D6F
:102B6000EB69D80024D40127EB6943F08053EB6173
:102B7000EB6903F080530093009B1C4E3368D9052A
:102B800018D5E368012B33D12B6A43F001032B6284
:102B9000FEF71EFB41F2883680462B6A9B074CD518
:102BA000002F3FF4E7AEEB6923F08053EB61E1E6E1
:102BB0000027E2E7336843F480733360FEF708FBD5
:102BC00080463368DA05DCD4FEF702FBA0EB080090
:102BD0006428F6D913E700BF6F7D0008001002409B
:102BE00000004242800442420C000020007000407D
:102BF000ABB92B6A41F2883823F001032B622B6AB0
:102C000023F004032B62FEF7E3FA06462B6A9807CB
:102C1000C6D5FEF7DDFA801B4045F7D9EFE6052B58
:102C20002B6A03D143F004032B62ADE723F00103C9
:102C30002B622B6A23F00403A9E7FEF7C9FAA0EB85
:102C40000800B042A9D9DAE6384D6B6803F00C03EE
:102C5000082B3FF4BDAE022A354E57D1236A33F418
:102C6000803304D040F2C221324803F049FD636A48
:102C700033F4402223F4802110D0B2F5801F0DD010
:102C8000B2F5001F0AD0B1F5401F07D0B3F5601FA1
:102C900004D040F2C321274803F032FD0023336003
:102CA000FEF796FA07462B68990129D4236AB3F5F3
:102CB000803F0ED1A36833F4003304D040F2D92111
:102CC0001C4803F01DFD6B68A26823F40033134316
:102CD0006B60236A616A6A680B4322F474121343BF
:102CE0006B6001233360FEF773FA04462B689A0188
:102CF0003FF54CAEFEF76CFA001B0228F6D97EE6D3
:102D0000FEF766FAC01B0228CDD978E600233360AF
:102D1000FEF75EFA04462B689B017FF537AEFEF79F
:102D200057FA001B0228F6D969E600BF00100240DE
:102D3000600042426F7D00080122014B1A6070471B
:102D40004C00424230B5194B87B002AC03F110057C
:102D5000224618685968083303C2AB421446F7D1BB
:102D600001238DF80430022311498DF805304B689A
:102D700003F00C02082A17D1C3F3834206A80244C9
:102D8000DB0312F8102C0CD54B680A48C3F3404300
:102D9000504306AA134413F8143CB0FBF3F007B0F9
:102DA00030BD05485043FAE70248F8E7F87B0008D1
:102DB0000010024000127A0000093D002DE9F041A8
:102DC0000E46044620B940F22E317F4803F098FCAD
:102DD00023681D0704D140F22F317B4803F090FC9B
:102DE000022E04D94FF44C71774803F089FC774ADE
:102DF000136803F007039E423DD82368980747D421
:102E00002368DA0770D4714A136803F007039E42FF
:102E1000C0F0B58023686E4D13F0040F40F0BB8006
:102E200023681B0717D5236933F480620CD023F481
:102E30000072B2F5A06F07D0B3F5C06F04D04FF4A5
:102E40006E71614803F05CFC6B68226923F4605387
:102E500043EAC2036B60FFF775FF6B685D4AC3F31B
:102E60000313D35CD8405C4B18600020FEF76EF96A
:102E70000020BDE8F081136823F00703334313609B
:102E8000136803F007039E42B7D00120BDE8F0812C
:102E90004F4D13F0040F1EBF6A6842F4E0626A608F
:102EA000190742BF6B6843F460536B60A36833F04B
:102EB000800212D023F02002902A0ED023F040028C
:102EC000A02A0AD023F01002C02A06D0F02B04D08A
:102ED00040F256313C4803F013FC6B68A26823F0C3
:102EE000F00313436B608BE76368022B04D940F255
:102EF0005D31354803F004FC6268354D012A2B68CA
:102F00001DD113F4003FC0D06B6841F2883823F024
:102F1000030313436B60FEF75BF963680746012BFD
:102F200015D16B6803F00C03042B3FF46CAFFEF774
:102F30004FF9C01B4045F4D90320BDE8F081022AB7
:102F400002D113F0007FDEE713F0020FDBE7022B64
:102F500010D16B6803F00C03082B3FF454AFFEF75D
:102F600037F9C01B4045F4D9E6E7FEF731F9C01B3D
:102F70004045E1D86B6813F00C0FF6D143E71368B6
:102F800023F0070333431360136803F007039E42E3
:102F90007FF47BAF3EE7E36833F480620CD023F428
:102FA0000072B2F5A06F07D0B3F5C06F04D040F245
:102FB000B131054803F0A4FB6B68E26823F4E063D9
:102FC00013436B602CE700BF6F7D000800200240B8
:102FD00000100240788200080C000020044B054AD3
:102FE0005B68C3F30223D35C034A1068D840704780
:102FF00000100240888200080C000020044B054AA3
:103000005B68C3F3C223D35C034A1068D84070479F
:1030100000100240888200080C0000207047000069
:1030200008B5054B9B681B0604D5FFF7F7FF802208
:10303000024B1A7008BD00BF001002400A10024087
:1030400003682DE9F34113F0130F054603D17C21EA
:10305000454803F055FB2B68D90728D56B6833F436
:10306000407303D08221404803F04AFB3F4CE369A0
:10307000DA0044D40127E36943F08053E361E36954
:1030800003F080530193019B394E3368DB0538D53B
:10309000236A13F4407348D1236A6A6823F44073A7
:1030A000134323621FB1E36923F08053E3612B686C
:1030B0009B070ED5AB6833F4404303D0C9212A489F
:1030C00003F01EFB294AA968536823F440430B43CD
:1030D0005360286810F0100024D0EB6833F48003AC
:1030E00004D040F22511204803F00AFB1F4AE9688A
:1030F0005368002023F480030B43536012E0002741
:10310000C2E7336843F480733360FEF761F88046AA
:103110003368D805BCD4FEF75BF8A0EB0800642840
:10312000F6D9032002B0BDE8F0816A6802F440726B
:103130009342B1D001200F4A236A1060002023F48B
:10314000407110602162D907A6D5FEF741F841F21F
:1031500088380646236A9A079ED4FEF739F8801B02
:103160004045F7D9DDE700BFA77D00080010024009
:10317000007000404004424270B50446394B86B0AE
:1031800002AD03F110062A4618685968083303C2D5
:10319000B3421546F7D101238DF80430022314F011
:1031A000130F8DF8053004D14FF4D3712E4803F07E
:1031B000A7FA022C47D0102C17D0012C4FD140F287
:1031C00002312A4A136A1940B1F5817F44D003F4D1
:1031D0004073B3F5007F2DD149F64040536A13F098
:1031E000020F08BF002006B070BD204B5968186858
:1031F00010F08070F7D0C1F3834206A8024412F8A1
:10320000100CCA0341BF5A6806A9C2F340425218C3
:1032100044BF12F8141C164A5B684CBFB2FBF1F2B3
:10322000144A5B0202FB00F0DDD403234000B0FB34
:10323000F3F0D8E7B3F5407F11D113684FF2244083
:1032400013F4003FCDE7FFF7D9FE084B5B68C3F3EB
:10325000813301335B00EAE74FF40040C3E700200D
:10326000C1E700BF087C0008A77D000800100240ED
:1032700000127A0000093D00036830B59A69D869E8
:10328000996995B28CB2A5421DBFD86980B240EA57
:10329000014080B208BF40EA024030BD0368186AAE
:1032A0005B6A9BB243EA004070470A22030900F0C0
:1032B0000F0002FB0300C0B27047022970B54FF047
:1032C000170300F5FA654FF009061AD84B4300F2D0
:1032D000CF74B3FBF6F04FF4C873B4FBF3F30432CE
:1032E0002A44104400EB940018446423B4FBF3F424
:1032F000001B0723B0FBF3F3C3EBC303C01AC0B238
:1033000070BD03FB01F0B0FBF6F002322A444FF42B
:10331000C87310446422B5FBF3F3B5FBF2F200EB83
:1033200095001844801AE4E738B50446FDF750FFCD
:10333000054623685A68920605D55A68002042F06F
:1033400010025A6038BDFDF743FF401BB0F57A7F8D
:10335000EFD9032038BD026838B55368044623F01E
:1033600010035360FDF734FF054623685B689B0636
:1033700001D5002038BDFDF72BFF401BB0F57A7F4B
:10338000F3D9032038BD38B505460C46FFF7CCFF0E
:1033900058B92B68220CA4B29A612846DC61FFF769
:1033A000DAFF003018BF012038BD012038BD38B524
:1033B00005460C46FFF7B8FF58B92B68220CA4B29B
:1033C0001A6228465C62FFF7C6FF003018BF012072
:1033D00038BD012038BD000070B50D4616460446C4
:1033E00000283DD000293BD0012A04D940F2E91140
:1033F000434803F085F9237C012B4FF002037DD075
:10340000012263742274287866BB172804D94FF40C
:10341000F9713B4803F074F96B783B2B04D940F207
:10342000F311374803F06CF9AB783B2B04D94FF418
:10343000FA71334803F064F93C206B782E785843D6
:103440004FF4616303FB0606A87806443146204624
:10345000FFF799FF054698B3042363740023237490
:10346000012549E0FFF721FF172804D94FF4FE7129
:10347000234803F045F96878FFF717FF3B2804D984
:1034800040F2FD111E4803F03BF9A878FFF70DFF4D
:103490003B2804D94FF4FF71194803F031F928781B
:1034A000FFF703FF06466878FFF7FFFE3C2358430B
:1034B0004FF4616303FB0606A878FFF7F6FEC4E746
:1034C00022682046536823F005035360FFF7E6FEA9
:1034D000431C0DD086420BD900F5A83101F5C0710F
:1034E0002046FFF764FF18B1042325746374B7E71F
:1034F0000123637400232374284670BD1D46FBE737
:10350000E27D000870B50D461646044600284ED0F0
:1035100000294CD0012A04D940F2BB21484803F0CD
:10352000EFF8237C0220012B42D001236074237426
:10353000E878002E3DD1632804D94FF4317140481A
:1035400003F0DEF86B78013B0B2B04D940F2C52168
:103550003B4803F0D5F8AB78013B1E2B04D940F271
:10356000C621374803F0CCF8EB78E3736B786373CC
:10357000AB78A373A27B617BE07BFFF79EFE207399
:1035800028702046FFF778FE2E4B984252D9A3F6BA
:103590000F63B0FBF3F503FB150520462946FFF743
:1035A000F2FE064698B304236374002323740120BB
:1035B00070BDFFF77AFE632804D940F2CF2120487E
:1035C00003F09EF86878FFF770FE0138C0B20B2850
:1035D00004D94FF434711A4803F092F8A878FFF731
:1035E00064FE0138C0B21E2804D940F2D12114482B
:1035F00003F086F8E878FFF758FEE0736878FFF785
:1036000054FE6073A878FFF750FEA073B2E720461F
:10361000FFF744FE431C0DD085420BD900F5A831BD
:1036200001F5C0712046FFF7C2FE18B104232674CD
:103630006374BCE7012300206374207470BD00BF75
:10364000E27D00088F5F010038B50446A8B102682A
:10365000536823F008035360FDF7BAFD054623685D
:103660005B681B0701D5002038BDFDF7B1FD401B8D
:10367000B0F57A7FF3D9032038BD012038BD0000B2
:1036800010B5044670B30268344B9A4203D0FC2153
:10369000334803F035F8A36833F0800208D023F4F0
:1036A0000073B3F5807F03D0FD212D4803F028F887
:1036B00063682C4AA3F58013934203D8FE2128485F
:1036C00003F01EF8637C03F0FF021BB9227420464E
:1036D00003F0C0F8022320466374FFF7B5FF18B16A
:1036E00004236374012010BD2046FFF71DFE00284F
:1036F000F6D12268A068536823F0070353601A4A82
:1037000018B1116B21F001011163D36A23F46073C6
:103710000343D3626068431C05D10120FFF72CFDF1
:103720000028DDD001382268936823F00F0343EAB4
:1037300010439360D36880B21B0C1B041843D06005
:103740002046FFF708FE012310B104226274C9E786
:10375000E0736373A373637410BD00BF002800405F
:10376000E27D0008FEFFEFFF006C0040036A2DE9D8
:10377000F04123F001030362046AD0F804808669F3
:103780000B6826F073061E438B6824F002041C436A
:103790001A4B054698420F4627D1CB6833F00803F1
:1037A00004D041F23F21164802F0AAFFFB6824F042
:1037B00008041C43BB6924F0040433F4007304D0F0
:1037C00041F24C210E4802F09BFF7B6933F4807379
:1037D00004D041F24D210A4802F092FF7B69BA6998
:1037E00028F44078134343EA08087B68C5F804804E
:1037F000AE616B632C62BDE8F08100BF002C01401C
:103800001A7E0008036A2DE9F04123F480730362F5
:10381000046AD0F80480C6690B6826F073061E435C
:103820008B6824F4007444EA03241B4B0546984239
:103830000F4628D1CB6833F0080304D041F2D421DD
:10384000164802F05DFFFB6824F4006444EA032498
:10385000BB6924F4806433F4007304D041F2E121A5
:103860000E4802F04DFF7B6933F4807304D041F2BF
:10387000E2210A4802F044FF7B69BA6928F4405803
:10388000134348EA03187B68C5F80480EE61EB63D4
:103890002C62BDE8F08100BF002C01401A7E0008B8
:1038A000036A2DE9F04123F480530362056AD0F8DE
:1038B0000480C7690B6827F4E64747EA03278B684B
:1038C00025F4005545EA03350D4B044698420E4653
:1038D0000DD14B6933F4807304D041F21F31094894
:1038E00002F00EFF736928F4804848EA8318736871
:1038F000C4F80480E76123642562BDE8F08100BF5D
:10390000002C01401A7E00080368104A10B593424B
:1039100004460FD0B3F1804F0CD0A2F594329342FD
:1039200008D002F58062934204D040F26111084849
:1039300002F0E6FE23680020DA6842F00102DA6055
:103940001A6842F001021A6010BD00BF002C01404D
:103950001A7E00087047000090F83C3070B5012BCB
:1039600005460C464FF002002ED0012385F83C306E
:103970000B6885F83D00B3F5805F0CD0B3F5005FB0
:1039800009D033F0300306D0402B04D040F67171DB
:10399000B54802F0B5FE2B689A6822F47F4222F007
:1039A00077029A602268402A00F062812CD8102A9F
:1039B00000F0B98109D8002A00F09B810123002082
:1039C00085F83D3085F83C0070BD202A00F0C581A7
:1039D000302AF3D1A54A93420FD0B3F1804F0CD0D7
:1039E000A2F59432934208D002F58062934204D04B
:1039F00040F6F9719C4802F083FE2A68936823F030
:103A0000700343F03703A9E0702A00F0A98046D87C
:103A1000502A00F0E780602AD0D1944A93420FD018
:103A2000B3F1804F0CD0A2F59432934208D002F546
:103A30008062934204D040F6C3718B4802F060FE6E
:103A40006368B3F5004F09D033F0020206D00A2BA9
:103A500004D040F6C671844802F052FEE3680F2B92
:103A600004D940F6C771804802F04AFE2B686668A8
:103A7000186AE46820F01000186299691A6A21F443
:103A8000704122F0A00242EA061241EA0431996133
:103A90001A629A6822F0700242F06702E2E0B2F520
:103AA000805F44D0B2F5005F88D1704A93420FD056
:103AB000B3F1804F0CD0A2F59432934208D002F5B6
:103AC0008062934204D04FF47A61674802F018FE96
:103AD000A36833F4405304D040F6A371624802F067
:103AE0000FFE6368B3F5004F09D033F0020206D031
:103AF0000A2B04D040F6A4715B4802F001FEE36893
:103B00000F2B04D940F6A571574802F0F9FD2A6839
:103B10006068A36891680343E06821F47F4143EA49
:103B200000230B439360936843F4804316E04F4AAD
:103B300093420FD0B3F1804F0CD0A2F59432934250
:103B400008D002F58062934204D040F67D71464869
:103B500002F0D6FD2A68936823F0070393602DE7EF
:103B6000424A93420FD0B3F1804F0CD0A2F5943269
:103B7000934208D002F58062934204D040F68671E9
:103B8000394802F0BDFDA36833F4405304D040F639
:103B90008971354802F0B4FD6368B3F5004F09D070
:103BA00033F0020206D00A2B04D040F68A712E4868
:103BB00002F0A6FDE3680F2B04D940F68B712A486A
:103BC00002F09EFD2A686068A36891680343E0687C
:103BD00021F47F4143EA00230B439360936843F051
:103BE0007703BBE7214A93420FD0B3F1804F0CD04B
:103BF000A2F59432934208D002F58062934204D039
:103C000040F6B471184802F07BFD6368B3F5004FCD
:103C100009D033F0020206D00A2B04D040F6B77167
:103C2000114802F06DFDE3680F2B04D940F6B8711E
:103C30000D4802F065FD2B686168186AE6681C6A29
:103C400020F00A0024F001041C629A69014322F06A
:103C5000F00242EA06129A6119629A6822F0700232
:103C600042F057029A60A9E61A7E0008002C014033
:103C7000474A93420FD0B3F1804F0CD0A2F5943253
:103C8000934208D002F58062934204D040F6D2718C
:103C9000404802F035FD6368B3F5004F09D033F0BA
:103CA000020206D00A2B04D040F6D571394802F042
:103CB00027FDE3680F2B04D940F6D671354802F092
:103CC0001FFD2B686168186AE6681C6A20F00A000C
:103CD00024F001041C629A69014322F0F00242EAD6
:103CE00006129A6119629A6822F0700242F0470245
:103CF000B8E7274A93420FD0B3F1804F0CD0A2F51A
:103D00009432934208D002F58062934204D040F688
:103D1000E171204802F0F4FC2A68936823F07003F4
:103D200043F007031AE71A4A93420FD0B3F1804FCA
:103D30000CD0A2F59432934208D002F580629342EF
:103D400004D040F6E971134802F0DAFC2A6893685F
:103D500023F0700343F0170300E70D4A93420FD09E
:103D6000B3F1804F0CD0A2F59432934208D002F503
:103D70008062934204D040F6F171064802F0C0FC24
:103D80002A68936823F0700343F02703E6E600BF38
:103D9000002C01401A7E000890F83C3010B5012B31
:103DA00004466ED0012380F83C300C2967D8DFE848
:103DB00001F00766666621666666386666664F00CD
:103DC0000368314A93420FD0B3F1804F0CD0A2F573
:103DD0009432934208D002F58062934204D041F2BB
:103DE00089012A4802F08CFC2368586B002384F870
:103DF0003C3010BD0368244A93420FD0B3F1804F8A
:103E00000CD0A2F59432934208D002F5806293421E
:103E100004D041F293011D4802F072FC2368986BB4
:103E2000E4E70368184A93420FD0B3F1804F0CD0F7
:103E3000A2F59432934208D002F58062934204D0F6
:103E400041F29E01114802F05BFC2368D86BCDE77C
:103E500003680D4A93420FD0B3F1804F0CD0A2F506
:103E60009432934208D002F58062934204D041F22A
:103E7000A901064802F044FC2368186CB6E700204C
:103E8000B4E7022010BD00BF002C01401A7E0008DC
:103E9000704770477047036810B51A690446910768
:103EA0000ED5DA6892070BD56FF002021A61012273
:103EB0009B6902779B0777D001F0FAFF00232377F5
:103EC00023681A69500710D5DA6851070DD56FF0CD
:103ED00004021A6102229B69227713F4407F204674
:103EE00068D001F0E5FF0023237723681A691207E1
:103EF0000FD5DA6810070CD56FF008021A6104229A
:103F0000DB692277990720465AD001F0D1FF0023C0
:103F1000237723681A69D20610D5DA68D0060DD542
:103F20006FF010021A610822DB69227713F4407FD8
:103F300020464BD001F0BCFF0023237723681A6989
:103F4000D10708D5DA68D20705D56FF001022046FF
:103F50001A6101F021FF23681A69100608D5DA6892
:103F6000110605D56FF0800220461A6100F0DFFCD3
:103F700023681A69520608D5DA68500605D56FF02D
:103F8000400220461A61FFF785FF23681A699106EF
:103F900022D5DA6892061FD56FF020022046BDE8D0
:103FA00010401A6100F0C2BCFFF772FF2046FFF715
:103FB00070FF83E7FFF76CFF2046FFF76AFF92E789
:103FC000FFF766FF2046FFF764FFA0E7FFF760FFFB
:103FD0002046FFF75EFFAFE710BD00001A4A0368F6
:103FE00090420AD0B0F1804F07D0A2F594329042AF
:103FF00003D002F58062904215D14A6823F0700325
:104000001343114A90420AD0B0F1804F07D0A2F575
:104010009432904203D002F58062904203D1CA6884
:1040200023F4407313434A6923F08003134303606E
:104030008B68C3620B688362034B984204BF0B69B1
:104040000363012343617047002C014010B504460F
:10405000002849D00368254A93420ED0B3F1804F1F
:104060000BD0A2F59432934207D002F580629342BE
:1040700003D0D9211E4802F043FBA36833F010029D
:1040800009D023F04002202A05D0402B03D0DA21AA
:10409000174802F035FB236933F4807206D0B3F57C
:1040A000007F03D0DB21124802F02AFBA36933F022
:1040B000800303D0DC210E4802F022FB94F83D304F
:1040C00003F0FF0223B984F83C20204602F0E0FB15
:1040D0000223206884F83D30211DFFF77FFF012374
:1040E000002084F83D3010BD012010BD002C01409F
:1040F0001A7E000810B5044600284DD00368274AF0
:1041000093420FD0B3F1804F0CD0A2F5943293427A
:1041100008D002F58062934204D040F2EE3120488C
:1041200002F0EEFAA36833F010020AD023F0400246
:10413000202A06D0402B04D040F2EF31184802F07C
:10414000DFFA236933F4807207D0B3F5007F04D01F
:104150004FF47C71124802F0D3FAA36933F0800364
:1041600004D040F2F1310E4802F0CAFA94F83D3022
:1041700003F0FF0223B984F83C20204602F0E0FB64
:104180000223206884F83D30211DFFF727FF01231B
:10419000002084F83D3010BD012010BD002C0140EE
:1041A0001A7E000810B5044600284DD00368274A3F
:1041B00093420FD0B3F1804F0CD0A2F594329342CA
:1041C00008D002F58062934204D040F2EE512048BC
:1041D00002F096FAA36833F010020AD023F04002EE
:1041E000202A06D0402B04D040F2EF51184802F0AC
:1041F00087FA236933F4807207D0B3F5007F04D0C7
:104200004FF4BE61124802F07BFAA36933F08003D9
:1042100004D040F2F1510E4802F072FA94F83D30A9
:1042200003F0FF0223B984F83C202046FFF792FBFD
:104230000223206884F83D30211DFFF7CFFE0123C3
:10424000002084F83D3010BD012010BD002C01403D
:104250001A7E0008036A2DE9F04123F0100303627F
:10426000046AD0F8048086690B6826F4E64646EABC
:1042700003268B6824F0200444EA03141A4B0546F5
:1042800098420F4628D1CB6833F0080304D041F29E
:104290008921164802F034FAFB6824F0800444EACD
:1042A0000314BB6924F0400433F4007304D041F2DA
:1042B00097210E4802F024FA7B6933F4807304D00E
:1042C00041F29821094802F01BFA7B69BA6928F487
:1042D0004068134348EA83087B68C5F80480AE61F0
:1042E000AB632C62BDE8F081002C01401A7E00080F
:1042F00090F83C3070B5012B04460D46164600F090
:10430000D6800123182A80F83C3003D8694BD3406B
:10431000DB0704D440F63741674802F0F1F92B6817
:1043200023F01003602B04D040F63841624802F0BD
:10433000E7F9AB6833F0020304D040F639415E4838
:1043400002F0DEF92B6933F0040304D040F63A4161
:10435000594802F0D5F9022384F83D300C2E2DD8AF
:10436000DFE806F0072C2C2C332C2C2C592C2C2C71
:104370007F002368514A93420FD0B3F1804F0CD095
:10438000A2F59432934208D002F58062934204D0A1
:1043900040F64241484802F0B3F929462068FFF749
:1043A000E5F9236829699A6942F008029A619A69D5
:1043B00022F004029A619A690A439A61012300205B
:1043C00084F83D3084F83C0070BD23683B4A93423A
:1043D0000FD0B3F1804F0CD0A2F59432934208D0A5
:1043E00002F58062934204D040F65141324802F017
:1043F00087F929462068FFF72DFF236829699A6904
:1044000042F400629A619A6922F480629A619A6920
:1044100042EA0122D1E72368284A93420FD0B3F140
:10442000804F0CD0A2F59432934208D002F58062FE
:10443000934204D04FF446611F4802F061F92946C7
:104440002068FFF7DFF923682969DA6942F008027A
:10445000DA61DA6922F00402DA61DA690A43DA61C0
:10446000ACE72368154A93420FD0B3F1804F0CD0CC
:10447000A2F59432934208D002F58062934204D0B0
:1044800040F66F410C4802F03BF929462068FFF7DF
:1044900007FA23682969DA6942F40062DA61DA69A5
:1044A00022F48062DA61DA6942EA0122D7E7022067
:1044B00070BD00BF111100011A7E0008002C0140E0
:1044C00070B5046A124E24F001040462B04284699B
:1044D000056A0AD0B0F1804F07D0A6F59436B042F5
:1044E00003D006F58066B0420FD124F003042243C6
:1044F0001B0122F0F002DBB225F00A0501F00A01EF
:104500001A4329438261016270BD44F00102EFE762
:10451000002C0140F8B516460368804A05469342D0
:104520000C460FD0B3F1804F0CD0A2F594329342D9
:1045300008D002F58062934204D040F6D531784825
:1045400002F0DEF8236833F0020206D00A2B04D012
:1045500040F6D631724802F0D3F86368013B022B73
:1045600004D940F6D7316E4802F0CAF8A36833F098
:104570000C0304D040F6D831694802F0C1F8E36872
:104580000F2B04D940F6D931654802F0B9F895F8F7
:104590003C300220012B1AD0012385F83D0085F81C
:1045A0003C30AEB994E80600E3682868FFF788FF5E
:1045B0002B68A1689A6922F00C029A619A690A43F1
:1045C0009A610123002085F83D3085F83C00F8BD54
:1045D000042E2B68514A35D193420FD0B3F1804F4E
:1045E0000CD0A2F59432934208D002F58062934237
:1045F00004D04FF43F614A4802F082F894E8840006
:104600002B68E1681E6A090326F010061E6298698D
:104610001E6A20F4407040EA072020F4704089B2FE
:104620001201014302F0A00226F0A00002439961AA
:104630001A629A69A16822F440629A619A6942EA10
:104640000122BDE7082E33D193420ED0B3F1804F43
:104650000BD0344A934208D002F58062934204D0D2
:104660004FF440612E4802F04BF82B6822681E6A16
:10467000606826F48076E1681E62DF69090127F030
:1046800003071E6A384320F0F000C9B2120201434A
:1046900002F4007226F400700243D9611A62DA69EA
:1046A000A16822F00C02DA61DA690A43DA6188E76C
:1046B00093420ED0B3F1804F0BD01A4A934208D0E8
:1046C00002F58062934204D04FF44161144802F035
:1046D00017F894E884002B68E1681E6A090326F441
:1046E00080561E62D8691E6A20F4407040EA072096
:1046F00020F4704089B21203014302F4005226F400
:1047000000500243D9611A62DA69A16822F440625A
:10471000DA61DA6942EA0122C8E700BF002C0140F1
:104720001A7E000800040040164B70B598420446FB
:104730000E4615460FD0B0F1804F0CD0A3F5943340
:10474000984208D003F58063984204D041F2135197
:104750000D4801F0D5FF182E03D80C4BF340DB07B2
:1047600004D441F21451084801F0CAFF0122236A1F
:10477000B24023EA02032362236AB5401D43256247
:1047800070BD00BF002C01401A7E0008111100010D
:1047900038B5164A0368044693420D460AD0B3F171
:1047A000804F07D0A2F59432934203D002F5806285
:1047B000934202D135F00C0304D040F24D410C4835
:1047C00001F09EFF206801222946FFF7ADFF236814
:1047D000064A0020934202BF5A6C42F400425A64D7
:1047E0001A6842F001021A6038BD00BF002C014077
:1047F0001A7E000838B5244A0368044693420D46E1
:104800000AD0B3F1804F07D0A2F59432934203D07F
:1048100002F58062934206D1ADB1042D24D0082D5B
:1048200027D00C2D2AD040F28161184801F068FF92
:104830000C2D0DD8DFE805F0070C0C0C180C0C0C37
:104840001D0C0C0C22002268D36843F00203D360D5
:10485000206801222946FFF767FF226800201368BD
:1048600043F00103136038BD2268D36843F00403AA
:10487000EDE72268D36843F00803E8E72268D368CD
:1048800043F01003E3E700BF002C01401A7E00084C
:1048900038B5244A0368044693420D460FD0B3F15D
:1048A000804F0CD0A2F59432934208D002F580627A
:1048B000934204D04FF4C7611B4801F021FF2B68DD
:1048C00033F0300306D0402B04D040F23961164853
:1048D00001F016FF6B6833F0800304D040F23A61B8
:1048E000114801F00DFF94F83C300220012B18D044
:1048F000236884F83D005A68296822F070025A60E3
:104900005A6800200A435A609A68696822F0800257
:104910009A609A680A439A60012384F83C0084F8FC
:104920003D3038BD002C0140527E00087047704772
:104930002DE9F7439DF828501F461544EDB2CB18DA
:104940000095DBB280460E46144600F0D7FB78B9DE
:1049500003B0BDE8F0832246CDF800903B463146D7
:10496000404600F054FB0134E4B2A542F3D1EFE736
:104970004FF00009F9E72DE9F74F9DF830A0CD1869
:1049800002EB0A04EDB2E4B2994600942B460646C7
:104990000F46904600F0B2FB30B300234FF0010BFE
:1049A000009342464B463946304600F030FB5346B2
:1049B000424639463046CDF800B000F028FB691E6B
:1049C000534642463046CDF800B0C9B200F01FFB56
:1049D000002339460C9330464B46621ED2B203B0D8
:1049E000BDE8F04F00F013BB03B0BDE8F08F2DE938
:1049F000F74305460026036890F83C9090F83D7018
:104A000093F811802B68B1B21B7CF4B2D8004143FB
:104A1000A86B89B201443A1901340091D2B2002145
:104A20002846E4B200F003FEA14504D90136BB19C3
:104A3000DBB29845E6D803B0BDE8F08303680021F7
:104A40001A7C90F83C30806BDB005A4302F066B869
:104A500010B50446436B80F83D101B689847636BA4
:104A60002046BDE810405B68184710B590F88730C5
:104A700004460BB1FFF7E2FF2046BDE810400021DD
:104A8000FFF7E6BF38B50446FFF7B1FF94F83D5095
:104A900094F83C1023680D445B7CEDB2AB4204D823
:104AA000204600F0EDFD002038BD94F8873013B1AA
:104AB0002046FFF7C3FF20462946FFF7C9FF012024
:104AC00038BD0000012303700048704794000020A7
:104AD00030B585B00D46009309491346094A04468E
:104AE00000F0F4FD0DF10F00FFF7ECFF9DF80F2033
:104AF00001460095044B204600F0E9FB05B030BDAF
:104B00008D550008475400082D5100084218435C99
:104B1000507800EB032080B27047012B07D003D3FD
:104B2000022B06D0401A00E01044C0B2704708447F
:104B3000FBE7801AF9E7012B07D003D3022B06D03D
:104B4000104400E00844C0B27047801AFBE7401AE6
:104B5000F9E70020704738B50B780D4603704B78A5
:104B6000044643708B788370CB78C3700B790371E4
:104B70004B7943718B798371CB79C3710B7A037253
:104B80004B7A43728B7A8372CB7AC3720B7B03733B
:104B90004B7B43738B7B8373CB7BC3730B7C112168
:104BA00003742846FFF7B2FF132160822846FFF7FF
:104BB000ADFF1521A0822846FFF7A8FFE08238BD8F
:104BC00070B5847A066862183378D2B2072A43FA3D
:104BD00004F506D8EBB282720120884001381840F3
:104BE00070BD731C03607378C4F10804E4B2A34081
:104BF0002B43083ADBB2D2B2EDE738B5002300F11F
:104C00005805044680F86230816590F86C1028469B
:104C1000FFF7D6FF94F86D1084F860002846FFF780
:104C2000CFFF94F8863084F8610084F86430B3FADA
:104C300083F35B0984F8653038BD10B5FFF7C0FF1A
:104C400001234C1EE4B2A340C01A40B210BD2DE9AE
:104C5000F04F04460E4687B090F85E8090F85F7083
:104C6000059294F860503346A5EB0805EDB2AE42CC
:104C700028BF2B4694F86690029394F85D304FFA63
:104C800088FA4FFA87FB04935A464B46514694F8EC
:104C90005C00FFF750FF4B4603905A46514604987C
:104CA000FFF73BFF059B02469BB194F8643084F804
:104CB0008630CDF80090029B0399204600F0A7F9BA
:104CC000AE420DD3761B0137F6B2FFB24FF00008AB
:104CD000C7E794F86330002BF2D194F86530E6E72B
:104CE000464484F85E6084F85FB007B0BDE8F08F9A
:104CF0002DE9F04F044685B000F15809FFF77DFF1C
:104D000094F9613094F86E1048460293FFF795FFCE
:104D100094F86F1083464846FFF78FFF94F87010A1
:104D200080464846FFF789FF94F960600390002EA3
:104D300057DD9DF8085094F866A0A844C8F1000813
:104D40004FFA88F853464246594694F85C00FFF7FC
:104D5000F2FE534684F85C000746424694F85D0034
:104D60005946FFF7DAFE84F85D00BAF1030F5AD80E
:104D7000DFE80AF0023B4450BB190544DBB2E9B25C
:104D8000009102463946204600F0B8F948B30023A6
:104D900084F85E3084F85F3094F86A104846FFF774
:104DA0000FFF94F86B1006464846FFF709FF0546CB
:104DB000002231462046FFF74AFF294620460122BD
:104DC000FFF745FF01214846FFF7FAFE0028EFD123
:104DD00094F95F30029A9342DEDB94F8643084F8F1
:104DE0008630039805B0BDE8F08FC5F101057A194A
:104DF00006440137FBB2F1B2D7B2C1E7C6F10106F2
:104E0000C5F10105411CBA1905440137FBB2C9B20D
:104E1000E8B2F1E7C6F10106411CEB190644DBB22A
:104E2000C9B2F0B2ACE701463B46A9E7036DFF29E2
:104E300070B503F117030D4612D8602909D9B0F8EF
:104E40007C201344587848B31A78AA4206D1981C9B
:104E500070BD4029F6D9B0F87A20F2E70344F1E7B3
:104E6000B0F87E401C44264600213046FFF74EFE37
:104E7000022104443046FFF749FE854206F104064C
:104E8000F2D82378607850EA032306D09D4201D1FE
:104E9000E01C70BDA3781C44F3E7184670BDF8B55C
:104EA0001F4690F8663004460E461546032B07D879
:104EB000DFE803F002151A1E436D98470544EDB272
:104EC00084F85C6084F85D5039462046FFF7AEFFF9
:104ED00020B101462046FFF70BFFC0B2F8BD436D7D
:104EE0009847361AF6B2EBE7436D98472D1AE6E776
:104EF000436D98470644F5E72DE9F0471E460746FF
:104F00000C4615464FF0000A00F009FA4FF6FF78FC
:104F10004FF6FE79013E7B6816F8011F3846984728
:104F2000404503461BD04845F5D02A462146384621
:104F3000FFF7B5FF97F86630032B05D8DFE803F0DD
:104F400002080B0D0444E4B250445FFA80FAE2E731
:104F50000544EDB2F8E7241AF5E72D1AF9E75046B3
:104F6000BDE8F08710B4024C446010BCFFF7C4BF2A
:104F70000F530008036D10B533B390F9754090F9E5
:104F8000761090F8813080F8824080F88310DBB191
:104F9000012B0CD190F977309C42B8BF80F8823059
:104FA00090F9783099420FDD80F8833010BD90F988
:104FB000742090F9723013449C42B8BF80F882305C
:104FC0009142C8BF80F8832010BD0000014B4365AB
:104FD000704700BF534B0008026D10B58A4204466B
:104FE00008D021656830FFF7B6FD2046BDE81040C7
:104FF000FFF7C0BF10BD70B490F840409DF80C6042
:10500000121B046B0396A44670BCD2B2604770B406
:1050100090F880409DF80C50002C3AD0002B38D0EE
:10502000012B04D9022D2BD10131C91AC9B215F0B7
:10503000010530D190F8474094422AD890F8484072
:10504000944226D90B44DBB28B4290F8456090F82D
:1050500046401CD28C4219D9631EDBB29E4218D244
:10506000B14238BF31469C4294BFC1EB0404C1EB4E
:105070000304E3B2446B0395A468A44670BC604784
:10508000032D02BF0132D21AD2B2D0E731468C4290
:10509000E4D870BC704790F845408C42F9D890F83D
:1050A00046408C42F5D91344DBB2934290F84760F6
:1050B00090F8484010D294420DD9631EDBB29E4254
:1050C000E7D2B24238BF32469C4294BFC2EB0404DE
:1050D000C2EB0304CDE732469442DAD9EFE78A42C5
:1050E00006D2834208D89A4294BF0020012070471C
:1050F0008342F8D8002070470120704770B50446FD
:105100000D461E4690F848109DF8103090F8470064
:10511000FFF7E5FF48B133462A4694F8461094F865
:105120004500BDE87040FFF7DABF70BDF0B501245F
:1051300090F8865002F00706B440012D9DF81470D7
:10514000E4B217D8254617D002F0F80E026892F89C
:1051500010C0826B0CFB0E1111447FB9013BDBB216
:1051600001330B440A782A43624001F8012B99422B
:10517000F8D1F0BD0025E7E70024E5E70A7801361D
:105180002A436240013B16F007060A70DBB20CD1DD
:1051900090F83E20114490F88620012A0AD80BD0BE
:1051A00001242546002BE9D1F0BD6D006400EDB26D
:1051B000E4B2F7E70124F5E71546F3E770B590F898
:1051C0003C400168E30080F83F300A7C90F83D5095
:1051D0001F2A28BF1F22EB00DBB2D20080F840302C
:1051E00080F83E204A7C66199642C4BF541BE4B244
:1051F00080F8413003EBC40380F84230F02380F89C
:1052000043308B8AF02B98BF80F84330CB8A80F8EC
:10521000443070BD10B49DF80440019410BCFFF7F9
:10522000EABE37B590F84C5090F84A3090F84B20D1
:1052300090F8491000950446FFF760FF18B984F80C
:10524000800003B030BD012394F8452084F88030FD
:1052500094F849309A4238BF84F8453094F8462093
:1052600094F84A309A4288BF84F8463094F8472030
:1052700094F84B309A4238BF84F8473094F848206D
:1052800094F84C309A4288BF84F84830D9E700221D
:1052900080F8452090F83E2080F8462090F8412084
:1052A00080F8472090F8422080F84820FFF7B9BFE7
:1052B000FFF784BF002280F8492080F84B20FF22AE
:1052C000436B80F84A2080F84C205B68184770B523
:1052D0000025036301230446049E80F83C2080F8E7
:1052E0003D5080F8635080F8855080F8863080F813
:1052F0008730816333680565466398472046FFF72A
:10530000D9FF2046FFF762FE84F8665070BD19B1E0
:105310000A2901D088B270474FF6FF70704700230A
:1053200080F82730704710B404691346A4460A4633
:1053300010BC1721604707B502AA02F8011D012120
:10534000FFF7F1FF03B05DF804FB002310B404691C
:105350001A46A446182110BC6047002310B4046903
:105360001A46A446192110BC6047F8B504461746F2
:105370000E46FFF7EAFF40212046FFF7DCFF2569D4
:105380003B46324620461721A8472046BDE8F84054
:10539000FFF7E3BF10B4C4680A46A44600231521F2
:1053A00010BC604710B4C4680A46A4460023162106
:1053B00010BC604710B4C4681346A4460A4610BC2B
:1053C00017216047002310B4C4681A46A446182168
:1053D00010BC6047002310B4C4681A46A4461921C3
:1053E00010BC604773B505460C462178172919D0C3
:1053F00003D815290DD202B070BD19291CD9FE2978
:10540000F9D16278292128468DF8072000F040F96B
:1054100006E06278EE688DF8072000232846B04742
:105420000234E2E763780DF10702012128468DF886
:105430000730FFF7BFFFF3E70023EE681A46284660
:105440000134B047D1E7143970B504461546052933
:1054500032D8DFE801F0230C0C0319191E46182D71
:10546000324613D829462046FFF77FFF0CE0FFF7AE
:105470006CFF00212046FFF75EFF29462046FFF71C
:105480005AFF2046FFF769FF012070BD1821204612
:10549000183DFFF76AFFEDB21836E0E790F82420D8
:1054A0000669FF2A04BF782280F82420B4462A46E1
:1054B000BDE8704014216047002070BD0B39F8B57D
:1054C000044615461F46042955D8DFE801F0035469
:1054D0000C1B29002AB929492046FFF783FF012028
:1054E000F8BD2749F8E73AB92649FFF77BFF23685B
:1054F0009B7C84F82230F2E72349FFF773FF23688F
:10550000DB7CF6E7FFF75EFF81212046FFF742FFD5
:1055100029462046FFF746FF2046FFF75BFFDEE700
:10552000FFF750FF7B7994F82260402106EBC30619
:1055300006F0FF062046FFF72DFF310941F010016C
:105540002046FFF727FF06F00F012046FFF72AFF4E
:10555000B979204641F0B001FFF724FF39793A6864
:10556000C90001F0F8012046013DFFF723FF15F0C7
:10557000FF05F3D1D0E70020F8BD00BF1F8200086F
:1055800024820008DC810008E381000838B5044665
:105590000D46FFF793FF50B9092D0AD00A2D07D108
:1055A000204600F014F805492046FFF71BFF0120B4
:1055B00038BD0349204600F005F8F8E7EA81000805
:1055C0002C82000801608B7C80F82230704738B54F
:1055D000002345691A4628210446A8470023E568A8
:1055E0001A4614212046A847204601224B2100F0EC
:1055F0004FF8236820461A79292100F049F82046FF
:1056000000224B2100F044F8236820461A79292112
:1056100000F03EF8204601224B2100F039F82368C3
:1056200020465A792921BDE8384000F031B813B539
:105630008DF80620049A8DF8043002AB8DF8051021
:1056400043F8082D846801220F21A04702B010BD45
:10565000002310B484681A46A446092110BC604790
:10566000002310B484681A46A4460A2110BC60477F
:1056700010B484680A46A44600230B2110BC60477E
:10568000002310B484681A46A446102110BC604759
:1056900010B444690023A44610BC60470020704742
:1056A0000023036080F8233080F8263080F827300C
:1056B000FF23054A80F824308260C26002614261A3
:1056C00080F82930704700BF9D560008F8B5069D48
:1056D00017461E46FFF7E4FFC7600661456181601B
:1056E000BDE8F840FFF7B4BF01207047F7B51439A3
:1056F0000C293CD8DFE801F00C3B3B0722263B3B62
:105700003B3B3B3B0C001B480778BC18202C10DDB2
:10571000012003B0F0BD5D5C01310EF8065001259B
:105720007E189142F6B2F6DBE4B2002DF0D00470A0
:10573000EEE70025DFF844E02946F1E700220D4BB3
:105740001A70E5E70C4C2046FDF7EAF82028FAD15C
:105750000A22084C7821237807480092074AFCF770
:1057600039FE074A237811680B441360D0E7002004
:10577000CFE700BF2001002004020020B00100207C
:105780001C01002038B500244FF08043074D22460D
:1057900028465C634FF48071FCF73CFB22462846A8
:1057A000BDE838404FF40071FCF734BB000C0140F9
:1057B000034610B5013901441A1A0C1AA24200DB43
:1057C00010BD1A780C7803F8014B01F80129F3E7B2
:1057D00038B50D460B460A215C1B58B930212B19F0
:1057E000944210DB28462146FFF7E2FF00232B55A9
:1057F000204638BD90FBF1F401FB1400303003F873
:10580000010B2046E8E7013403F8011BE8E700003C
:105810002DE9F0470C4616460746FBF74DFC0022E3
:1058200021468246FFF7D4FF05462EB32E2323548C
:105830003046FAF7DFFD02460B4600200F4901F023
:10584000B5F9804650468946FBF71CFA01463846B2
:10585000FBF762F9FAF7E0FD42464B46FAF730FEF5
:105860000135FBF705F92C44FBF726FC32462146AF
:10587000BDE8F047FFF7ACBFBDE8F087000024406B
:1058800030B50C4C85B0227892B90B490B4B886926
:1058900001251860C869096A586099600C21009355
:1058A000019102951023A0210548FCF769FE25709F
:1058B00005B030BD17010020C00200205C020020AE
:1058C00004020020022810B5044603D1BDE81040B0
:1058D000FFF758BF88B901224FF480710948FCF7DF
:1058E00099FA22464FF400710648FCF793FA4FF4F8
:1058F000E1724FF080435A6310BD0128FCD10022B1
:10590000EAE700BF000C014038B500240A4D0B4BFC
:10591000224628464FF480611C70FCF77BFA28462B
:1059200022464FF40041FCF775FAFFF72BFFBDE864
:1059300038400348FBF705BC000C0140EC01002097
:10594000C00200200000000038B5134C134D206841
:10595000FBF7B2FBFAF74EFD0DA3D3E90023FAF7EC
:10596000FDFBFBF785F8606001240D4B22464FF4E8
:10597000806128461C70FCF74DFA22464FF4004126
:105980002846FCF747FA074B1B8838BDAFF3008069
:105990009A9999999999B93FAC020020000C01405D
:1059A000EC01002022010020002330B5084C34F81F
:1059B0001320D9B202F14105A84202DC413A9042DB
:1059C00003DA0133052BF2D11946084630BD00BF7A
:1059D0006E82000838B5104C104D2046FBF7E4FDF0
:1059E00064212046FBF7FAFB01212046FBF77CFEF1
:1059F00080B2288002212046FBF776FE80B26880C4
:105A000003212046FBF770FE80B2A8802046BDE847
:105A10003840FBF72FBE00BF78020020A40300200F
:105A200008B508211748FCF7E3F9012818BF002240
:105A3000154B4FF4807108BF1870124818BF1A70C8
:105A4000FCF7D6F9012818BF0022104B4FF4804113
:105A500008BF18700E4818BF1A70FCF7C9F9012862
:105A600014BF012200220B4B4FF4805108481A70DA
:105A7000FCF7BEF9012818BF0022074B0CBF1870B5
:105A80001A7008BD00080140180100201401002010
:105A9000000C01400800002015010020000000005B
:105AA000012810B511D002D3022824D010BD204CFB
:105AB000A06929B94FF07E51FBF730F8A06110BD05
:105AC0004FF07E51FBF728F8F8E7194CE06951B91F
:105AD000FAF7A2FC14A3D3E90023FAF73FFBFAF785
